{
  "contractName": "ECommerce",
  "abi": [
    {
      "inputs": [
        {
          "internalType": "string",
          "name": "_name",
          "type": "string"
        },
        {
          "internalType": "uint256",
          "name": "_price",
          "type": "uint256"
        },
        {
          "internalType": "uint256",
          "name": "_duration",
          "type": "uint256"
        },
        {
          "internalType": "string",
          "name": "_description",
          "type": "string"
        },
        {
          "internalType": "bool",
          "name": "_sold",
          "type": "bool"
        }
      ],
      "name": "ListItem",
      "outputs": [
        {
          "internalType": "bool",
          "name": "success",
          "type": "bool"
        }
      ],
      "stateMutability": "nonpayable",
      "type": "function"
    },
    {
      "inputs": [],
      "name": "PayFeeEther",
      "outputs": [
        {
          "internalType": "bool",
          "name": "success",
          "type": "bool"
        }
      ],
      "stateMutability": "payable",
      "type": "function"
    },
    {
      "inputs": [
        {
          "internalType": "uint256",
          "name": "_value",
          "type": "uint256"
        }
      ],
      "name": "PayFeeToken",
      "outputs": [
        {
          "internalType": "bool",
          "name": "success",
          "type": "bool"
        }
      ],
      "stateMutability": "nonpayable",
      "type": "function"
    },
    {
      "inputs": [
        {
          "internalType": "uint256",
          "name": "id",
          "type": "uint256"
        }
      ],
      "name": "SearchItem",
      "outputs": [
        {
          "internalType": "address",
          "name": "owner_",
          "type": "address"
        },
        {
          "internalType": "string",
          "name": "name_",
          "type": "string"
        },
        {
          "internalType": "uint256",
          "name": "price_",
          "type": "uint256"
        },
        {
          "internalType": "uint256",
          "name": "duration_",
          "type": "uint256"
        },
        {
          "internalType": "string",
          "name": "description_",
          "type": "string"
        },
        {
          "internalType": "bool",
          "name": "sold_",
          "type": "bool"
        }
      ],
      "stateMutability": "view",
      "type": "function"
    },
    {
      "inputs": [
        {
          "internalType": "uint256",
          "name": "id",
          "type": "uint256"
        },
        {
          "internalType": "uint256",
          "name": "price",
          "type": "uint256"
        }
      ],
      "name": "BuyItemwithTokens",
      "outputs": [
        {
          "internalType": "bool",
          "name": "success",
          "type": "bool"
        }
      ],
      "stateMutability": "nonpayable",
      "type": "function"
    },
    {
      "inputs": [
        {
          "internalType": "uint256",
          "name": "id",
          "type": "uint256"
        },
        {
          "internalType": "uint256",
          "name": "pay",
          "type": "uint256"
        }
      ],
      "name": "BuyItemwithEther",
      "outputs": [
        {
          "internalType": "bool",
          "name": "success",
          "type": "bool"
        }
      ],
      "stateMutability": "nonpayable",
      "type": "function"
    },
    {
      "inputs": [
        {
          "internalType": "uint256",
          "name": "id",
          "type": "uint256"
        }
      ],
      "name": "ViewItemPriceETH",
      "outputs": [
        {
          "internalType": "uint256",
          "name": "",
          "type": "uint256"
        }
      ],
      "stateMutability": "view",
      "type": "function"
    },
    {
      "inputs": [
        {
          "internalType": "uint256",
          "name": "id",
          "type": "uint256"
        }
      ],
      "name": "ViewItemPriceTokens",
      "outputs": [
        {
          "internalType": "uint256",
          "name": "",
          "type": "uint256"
        }
      ],
      "stateMutability": "view",
      "type": "function"
    },
    {
      "inputs": [],
      "name": "ReturnListingETHFee",
      "outputs": [
        {
          "internalType": "uint256",
          "name": "",
          "type": "uint256"
        }
      ],
      "stateMutability": "view",
      "type": "function"
    },
    {
      "inputs": [],
      "name": "ReturnListingTokenFee",
      "outputs": [
        {
          "internalType": "uint256",
          "name": "",
          "type": "uint256"
        }
      ],
      "stateMutability": "view",
      "type": "function"
    }
  ],
  "bytecode": "0x6080604052600160025565246139ca8000600355662386f26fc1000060065560fa60075534801561002f57600080fd5b506123998061003f6000396000f3fe6080604052600436106100915760003560e01c8063a67cdb3a11610059578063a67cdb3a146101c7578063c3c0def3146101f2578063cb3f25cf1461021d578063df09331a1461025f578063df13d6301461029c57610091565b80633180134614610096578063382bfd2d146100d35780634b819f9f1461011057806388e5c3bf1461014d5780638ceb6ce91461018a575b600080fd5b3480156100a257600080fd5b506100bd60048036038101906100b891906118d5565b6102ba565b6040516100ca9190611997565b60405180910390f35b3480156100df57600080fd5b506100fa60048036038101906100f591906119b2565b6105b1565b60405161010791906119ee565b60405180910390f35b34801561011c57600080fd5b50610137600480360381019061013291906119b2565b6105e5565b6040516101449190611997565b60405180910390f35b34801561015957600080fd5b50610174600480360381019061016f91906119b2565b610936565b60405161018191906119ee565b60405180910390f35b34801561019657600080fd5b506101b160048036038101906101ac9190611a09565b610956565b6040516101be9190611997565b60405180910390f35b3480156101d357600080fd5b506101dc610ced565b6040516101e991906119ee565b60405180910390f35b3480156101fe57600080fd5b50610207610cf7565b60405161021491906119ee565b60405180910390f35b34801561022957600080fd5b50610244600480360381019061023f91906119b2565b610d01565b60405161025696959493929190611b12565b60405180910390f35b34801561026b57600080fd5b5061028660048036038101906102819190611a09565b610ee8565b6040516102939190611997565b60405180910390f35b6102a4611415565b6040516102b19190611997565b60405180910390f35b600060011515600d6000600254815260200190815260200160002060003373ffffffffffffffffffffffffffffffffffffffff1673ffffffffffffffffffffffffffffffffffffffff16815260200190815260200160002060009054906101000a900460ff16151514610362576040517f08c379a000000000000000000000000000000000000000000000000000000000815260040161035990611bf3565b60405180910390fd5b42610376428661162390919063ffffffff16565b116103b6576040517f08c379a00000000000000000000000000000000000000000000000000000000081526004016103ad90611c85565b60405180910390fd5b3360086000600254815260200190815260200160002060000160006101000a81548173ffffffffffffffffffffffffffffffffffffffff021916908373ffffffffffffffffffffffffffffffffffffffff16021790555085600860006002548152602001908152602001600020600101908051906020019061043992919061166a565b50846008600060025481526020019081526020016000206002018190555061046a428561162390919063ffffffff16565b600860006002548152602001908152602001600020600301819055508260086000600254815260200190815260200160002060040190805190602001906104b292919061166a565b508160086000600254815260200190815260200160002060050160006101000a81548160ff021916908315150217905550600260008154809291906104f690611cd4565b9190505550600a60003373ffffffffffffffffffffffffffffffffffffffff1673ffffffffffffffffffffffffffffffffffffffff168152602001908152602001600020600081548092919061054b90611cd4565b91905055503360096000600254815260200190815260200160002060006101000a81548173ffffffffffffffffffffffffffffffffffffffff021916908373ffffffffffffffffffffffffffffffffffffffff1602179055506001905095945050505050565b60006105de600354600860008581526020019081526020016000206002015461164f90919063ffffffff16565b9050919050565b6000801515600d6000600254815260200190815260200160002060003373ffffffffffffffffffffffffffffffffffffffff1673ffffffffffffffffffffffffffffffffffffffff16815260200190815260200160002060009054906101000a900460ff1615151461068c576040517f08c379a000000000000000000000000000000000000000000000000000000000815260040161068390611d69565b60405180910390fd5b60075482146106d0576040517f08c379a00000000000000000000000000000000000000000000000000000000081526004016106c790611dd5565b60405180910390fd5b600160009054906101000a900473ffffffffffffffffffffffffffffffffffffffff1673ffffffffffffffffffffffffffffffffffffffff1663cc16f5db33846040518363ffffffff1660e01b815260040161072d929190611df5565b6020604051808303816000875af115801561074c573d6000803e3d6000fd5b505050506040513d601f19601f820116820180604052508101906107709190611e33565b50600160009054906101000a900473ffffffffffffffffffffffffffffffffffffffff1673ffffffffffffffffffffffffffffffffffffffff16630f6798a530846040518363ffffffff1660e01b81526004016107ce929190611df5565b6020604051808303816000875af11580156107ed573d6000803e3d6000fd5b505050506040513d601f19601f820116820180604052508101906108119190611e33565b506001600d6000600254815260200190815260200160002060003373ffffffffffffffffffffffffffffffffffffffff1673ffffffffffffffffffffffffffffffffffffffff16815260200190815260200160002060006101000a81548160ff0219169083151502179055506108928260045461162390919063ffffffff16565b6004819055506108ea82600b60003373ffffffffffffffffffffffffffffffffffffffff1673ffffffffffffffffffffffffffffffffffffffff1681526020019081526020016000205461162390919063ffffffff16565b600b60003373ffffffffffffffffffffffffffffffffffffffff1673ffffffffffffffffffffffffffffffffffffffff1681526020019081526020016000208190555060019050919050565b600060086000838152602001908152602001600020600201549050919050565b600042600860008581526020019081526020016000206003015410156109b1576040517f08c379a00000000000000000000000000000000000000000000000000000000081526004016109a890611eac565b60405180910390fd5b60008314156109f5576040517f08c379a00000000000000000000000000000000000000000000000000000000081526004016109ec90611f18565b60405180910390fd5b600015156008600085815260200190815260200160002060050160009054906101000a900460ff16151514610a5f576040517f08c379a0000000000000000000000000000000000000000000000000000000008152600401610a5690611f84565b60405180910390fd5b60086000848152602001908152602001600020600201543373ffffffffffffffffffffffffffffffffffffffff16311015610acf576040517f08c379a0000000000000000000000000000000000000000000000000000000008152600401610ac690611ff0565b60405180910390fd5b60086000848152602001908152602001600020600201548214610b27576040517f08c379a0000000000000000000000000000000000000000000000000000000008152600401610b1e9061205c565b60405180910390fd5b6009600084815260200190815260200160002060009054906101000a900473ffffffffffffffffffffffffffffffffffffffff1673ffffffffffffffffffffffffffffffffffffffff166108fc839081150290604051600060405180830381858888f19350505050158015610ba0573d6000803e3d6000fd5b50600a60003373ffffffffffffffffffffffffffffffffffffffff1673ffffffffffffffffffffffffffffffffffffffff1681526020019081526020016000206000815480929190610bf190611cd4565b9190505550336008600085815260200190815260200160002060000160006101000a81548173ffffffffffffffffffffffffffffffffffffffff021916908373ffffffffffffffffffffffffffffffffffffffff1602179055506001600e600085815260200190815260200160002060003373ffffffffffffffffffffffffffffffffffffffff1673ffffffffffffffffffffffffffffffffffffffff16815260200190815260200160002060006101000a81548160ff02191690831515021790555060016008600085815260200190815260200160002060050160006101000a81548160ff0219169083151502179055506001905092915050565b6000600754905090565b6000600654905090565b60006060600080606060006008600088815260200190815260200160002060000160009054906101000a900473ffffffffffffffffffffffffffffffffffffffff169550600860008881526020019081526020016000206001018054610d66906120ab565b80601f0160208091040260200160405190810160405280929190818152602001828054610d92906120ab565b8015610ddf5780601f10610db457610100808354040283529160200191610ddf565b820191906000526020600020905b815481529060010190602001808311610dc257829003601f168201915b505050505094506008600088815260200190815260200160002060020154935060086000888152602001908152602001600020600301549250600860008881526020019081526020016000206004018054610e39906120ab565b80601f0160208091040260200160405190810160405280929190818152602001828054610e65906120ab565b8015610eb25780601f10610e8757610100808354040283529160200191610eb2565b820191906000526020600020905b815481529060010190602001808311610e9557829003601f168201915b505050505091506008600088815260200190815260200160002060050160009054906101000a900460ff16905091939550919395565b6000610f15600354600860008681526020019081526020016000206002015461164f90919063ffffffff16565b91504260086000858152602001908152602001600020600301541015610f70576040517f08c379a0000000000000000000000000000000000000000000000000000000008152600401610f6790611eac565b60405180910390fd5b6000831415610fb4576040517f08c379a0000000000000000000000000000000000000000000000000000000008152600401610fab90611f18565b60405180910390fd5b600015156008600085815260200190815260200160002060050160009054906101000a900460ff1615151461101e576040517f08c379a000000000000000000000000000000000000000000000000000000000815260040161101590611f84565b60405180910390fd5b81600160009054906101000a900473ffffffffffffffffffffffffffffffffffffffff1673ffffffffffffffffffffffffffffffffffffffff16632e4d59c4336040518263ffffffff1660e01b815260040161107a91906120dd565b602060405180830381865afa158015611097573d6000803e3d6000fd5b505050506040513d601f19601f820116820180604052508101906110bb919061210d565b10156110fc576040517f08c379a00000000000000000000000000000000000000000000000000000000081526004016110f390612186565b60405180910390fd5b60086000848152602001908152602001600020600201548214611154576040517f08c379a000000000000000000000000000000000000000000000000000000000815260040161114b906121f2565b60405180910390fd5b600160009054906101000a900473ffffffffffffffffffffffffffffffffffffffff1673ffffffffffffffffffffffffffffffffffffffff1663cc16f5db33846040518363ffffffff1660e01b81526004016111b1929190611df5565b6020604051808303816000875af11580156111d0573d6000803e3d6000fd5b505050506040513d601f19601f820116820180604052508101906111f49190611e33565b50600160009054906101000a900473ffffffffffffffffffffffffffffffffffffffff1673ffffffffffffffffffffffffffffffffffffffff16630f6798a56009600086815260200190815260200160002060009054906101000a900473ffffffffffffffffffffffffffffffffffffffff16846040518363ffffffff1660e01b8152600401611285929190611df5565b6020604051808303816000875af11580156112a4573d6000803e3d6000fd5b505050506040513d601f19601f820116820180604052508101906112c89190611e33565b50600a60003373ffffffffffffffffffffffffffffffffffffffff1673ffffffffffffffffffffffffffffffffffffffff168152602001908152602001600020600081548092919061131990611cd4565b9190505550336008600085815260200190815260200160002060000160006101000a81548173ffffffffffffffffffffffffffffffffffffffff021916908373ffffffffffffffffffffffffffffffffffffffff1602179055506001600e600085815260200190815260200160002060003373ffffffffffffffffffffffffffffffffffffffff1673ffffffffffffffffffffffffffffffffffffffff16815260200190815260200160002060006101000a81548160ff02191690831515021790555060016008600085815260200190815260200160002060050160006101000a81548160ff0219169083151502179055506001905092915050565b6000600654341461145b576040517f08c379a00000000000000000000000000000000000000000000000000000000081526004016114529061225e565b60405180910390fd5b60001515600d6000600254815260200190815260200160002060003373ffffffffffffffffffffffffffffffffffffffff1673ffffffffffffffffffffffffffffffffffffffff16815260200190815260200160002060009054906101000a900460ff16151514611501576040517f08c379a00000000000000000000000000000000000000000000000000000000081526004016114f890611d69565b60405180910390fd5b6001600d6000600254815260200190815260200160002060003373ffffffffffffffffffffffffffffffffffffffff1673ffffffffffffffffffffffffffffffffffffffff16815260200190815260200160002060006101000a81548160ff0219169083151502179055506115813460055461162390919063ffffffff16565b6005819055506115d934600c60003373ffffffffffffffffffffffffffffffffffffffff1673ffffffffffffffffffffffffffffffffffffffff1681526020019081526020016000205461162390919063ffffffff16565b600c60003373ffffffffffffffffffffffffffffffffffffffff1673ffffffffffffffffffffffffffffffffffffffff168152602001908152602001600020819055506001905090565b6000808284611632919061227e565b905083811015611645576116446122d4565b5b8091505092915050565b600080828461165e9190612332565b90508091505092915050565b828054611676906120ab565b90600052602060002090601f01602090048101928261169857600085556116df565b82601f106116b157805160ff19168380011785556116df565b828001600101855582156116df579182015b828111156116de5782518255916020019190600101906116c3565b5b5090506116ec91906116f0565b5090565b5b808211156117095760008160009055506001016116f1565b5090565b6000604051905090565b600080fd5b600080fd5b600080fd5b600080fd5b6000601f19601f8301169050919050565b7f4e487b7100000000000000000000000000000000000000000000000000000000600052604160045260246000fd5b6117748261172b565b810181811067ffffffffffffffff821117156117935761179261173c565b5b80604052505050565b60006117a661170d565b90506117b2828261176b565b919050565b600067ffffffffffffffff8211156117d2576117d161173c565b5b6117db8261172b565b9050602081019050919050565b82818337600083830152505050565b600061180a611805846117b7565b61179c565b90508281526020810184848401111561182657611825611726565b5b6118318482856117e8565b509392505050565b600082601f83011261184e5761184d611721565b5b813561185e8482602086016117f7565b91505092915050565b6000819050919050565b61187a81611867565b811461188557600080fd5b50565b60008135905061189781611871565b92915050565b60008115159050919050565b6118b28161189d565b81146118bd57600080fd5b50565b6000813590506118cf816118a9565b92915050565b600080600080600060a086880312156118f1576118f0611717565b5b600086013567ffffffffffffffff81111561190f5761190e61171c565b5b61191b88828901611839565b955050602061192c88828901611888565b945050604061193d88828901611888565b935050606086013567ffffffffffffffff81111561195e5761195d61171c565b5b61196a88828901611839565b925050608061197b888289016118c0565b9150509295509295909350565b6119918161189d565b82525050565b60006020820190506119ac6000830184611988565b92915050565b6000602082840312156119c8576119c7611717565b5b60006119d684828501611888565b91505092915050565b6119e881611867565b82525050565b6000602082019050611a0360008301846119df565b92915050565b60008060408385031215611a2057611a1f611717565b5b6000611a2e85828601611888565b9250506020611a3f85828601611888565b9150509250929050565b600073ffffffffffffffffffffffffffffffffffffffff82169050919050565b6000611a7482611a49565b9050919050565b611a8481611a69565b82525050565b600081519050919050565b600082825260208201905092915050565b60005b83811015611ac4578082015181840152602081019050611aa9565b83811115611ad3576000848401525b50505050565b6000611ae482611a8a565b611aee8185611a95565b9350611afe818560208601611aa6565b611b078161172b565b840191505092915050565b600060c082019050611b276000830189611a7b565b8181036020830152611b398188611ad9565b9050611b4860408301876119df565b611b5560608301866119df565b8181036080830152611b678185611ad9565b9050611b7660a0830184611988565b979650505050505050565b7f596f752068617665206e6f74207061696420746865206c697374696e6720666560008201527f6500000000000000000000000000000000000000000000000000000000000000602082015250565b6000611bdd602183611a95565b9150611be882611b81565b604082019050919050565b60006020820190508181036000830152611c0c81611bd0565b9050919050565b7f4475726174696f6e206d7573742062652067726561746572207468616e20637560008201527f7272656e742074696d6500000000000000000000000000000000000000000000602082015250565b6000611c6f602a83611a95565b9150611c7a82611c13565b604082019050919050565b60006020820190508181036000830152611c9e81611c62565b9050919050565b7f4e487b7100000000000000000000000000000000000000000000000000000000600052601160045260246000fd5b6000611cdf82611867565b91507fffffffffffffffffffffffffffffffffffffffffffffffffffffffffffffffff821415611d1257611d11611ca5565b5b600182019050919050565b7f596f75206861766520616c726561647920706169642061206665650000000000600082015250565b6000611d53601b83611a95565b9150611d5e82611d1d565b602082019050919050565b60006020820190508181036000830152611d8281611d46565b9050919050565b7f596f75206d7573742073656e642065786163746c792032353020546f6b656e73600082015250565b6000611dbf602083611a95565b9150611dca82611d89565b602082019050919050565b60006020820190508181036000830152611dee81611db2565b9050919050565b6000604082019050611e0a6000830185611a7b565b611e1760208301846119df565b9392505050565b600081519050611e2d816118a9565b92915050565b600060208284031215611e4957611e48611717565b5b6000611e5784828501611e1e565b91505092915050565b7f4c697374696e672054696d652065786365656465640000000000000000000000600082015250565b6000611e96601583611a95565b9150611ea182611e60565b602082019050919050565b60006020820190508181036000830152611ec581611e89565b9050919050565b7f4e6f2073756368204974656d2065786973747300000000000000000000000000600082015250565b6000611f02601383611a95565b9150611f0d82611ecc565b602082019050919050565b60006020820190508181036000830152611f3181611ef5565b9050919050565b7f4974656d20686173206265656e20626f75676874000000000000000000000000600082015250565b6000611f6e601483611a95565b9150611f7982611f38565b602082019050919050565b60006020820190508181036000830152611f9d81611f61565b9050919050565b7f496e73756666696369656e742042616c616e6365000000000000000000000000600082015250565b6000611fda601483611a95565b9150611fe582611fa4565b602082019050919050565b6000602082019050818103600083015261200981611fcd565b9050919050565b7f496e7075742074686520457861637420416d6f756e7400000000000000000000600082015250565b6000612046601683611a95565b915061205182612010565b602082019050919050565b6000602082019050818103600083015261207581612039565b9050919050565b7f4e487b7100000000000000000000000000000000000000000000000000000000600052602260045260246000fd5b600060028204905060018216806120c357607f821691505b602082108114156120d7576120d661207c565b5b50919050565b60006020820190506120f26000830184611a7b565b92915050565b60008151905061210781611871565b92915050565b60006020828403121561212357612122611717565b5b6000612131848285016120f8565b91505092915050565b7f496e73756666696369656e7420546f6b656e7300000000000000000000000000600082015250565b6000612170601383611a95565b915061217b8261213a565b602082019050919050565b6000602082019050818103600083015261219f81612163565b9050919050565b7f53656e642074686520457861637420616d6f756e74206f6620746f6b656e7300600082015250565b60006121dc601f83611a95565b91506121e7826121a6565b602082019050919050565b6000602082019050818103600083015261220b816121cf565b9050919050565b7f596f75206d757374207061792065786163746c7920302e303120457468657200600082015250565b6000612248601f83611a95565b915061225382612212565b602082019050919050565b600060208201905081810360008301526122778161223b565b9050919050565b600061228982611867565b915061229483611867565b9250827fffffffffffffffffffffffffffffffffffffffffffffffffffffffffffffffff038211156122c9576122c8611ca5565b5b828201905092915050565b7f4e487b7100000000000000000000000000000000000000000000000000000000600052600160045260246000fd5b7f4e487b7100000000000000000000000000000000000000000000000000000000600052601260045260246000fd5b600061233d82611867565b915061234883611867565b92508261235857612357612303565b5b82820490509291505056fea26469706673582212209581eb75e2b94718f874ac182e1ab1000971bf2dfdfd0fa6c723d7e5d19be04c64736f6c634300080b0033",
  "immutableReferences": {},
  "source": "pragma solidity ^0.8.11;\r\nimport \"./TokenVendor.sol\";\r\ncontract ECommerce{\r\n    using SafeMath for uint; \r\n    TokenVendor vendor;\r\n    OGG myogg;\r\n    struct Item{\r\n        address owner;\r\n        string name;\r\n        uint listingprice;\r\n        uint listingduration; \r\n        string description;\r\n        bool sold;\r\n    }\r\n    uint private Itemcount = 1;\r\n    uint private rate = 40000000000000;\r\n    uint private Tokenfees;\r\n    uint private Etherfees;\r\n    uint private listingEtherPrice = 0.01 ether;\r\n    uint private listingTokenAmount = 250;\r\n    mapping(uint => Item)ItemList;\r\n    mapping(uint => address)Lister;\r\n    mapping(address => uint)ItemsOwned;\r\n    mapping(address => uint)PaidTokenFee;\r\n    mapping(address => uint)PaidEtherFee;\r\n    mapping(uint => mapping(address =>bool))feePaid;\r\n    mapping(uint => mapping(address =>bool))PaidItem;\r\n\r\n    function ListItem(string memory _name,uint _price,uint _duration,string memory _description,bool _sold)public returns(bool success){\r\n        require(feePaid[Itemcount][msg.sender] == true,\"You have not paid the listing fee\");\r\n        require(_duration.add(block.timestamp) > block.timestamp,\"Duration must be greater than current time\");\r\n        ItemList[Itemcount].owner = msg.sender;\r\n        ItemList[Itemcount].name = _name;\r\n        ItemList[Itemcount].listingprice = _price;\r\n        ItemList[Itemcount].listingduration = _duration .add(block.timestamp);\r\n        ItemList[Itemcount].description = _description;\r\n        ItemList[Itemcount].sold = _sold;\r\n        Itemcount++;\r\n        ItemsOwned[msg.sender]++;\r\n        Lister[Itemcount] = msg.sender;\r\n        return true;\r\n    }\r\n\r\n    function PayFeeEther()public payable returns(bool success){\r\n        require(msg.value == listingEtherPrice,\"You must pay exactly 0.01 Ether\");\r\n        require(feePaid[Itemcount][msg.sender] == false,\"You have already paid a fee\");\r\n        feePaid[Itemcount][msg.sender] = true;\r\n        Etherfees = Etherfees.add(msg.value);\r\n        PaidEtherFee[msg.sender] = PaidEtherFee[msg.sender].add(msg.value);\r\n        return true;\r\n    }\r\n\r\n    function PayFeeToken(uint _value)public returns(bool success){\r\n        require(feePaid[Itemcount][msg.sender] == false,\"You have already paid a fee\");\r\n        require(_value == listingTokenAmount,\"You must send exactly 250 Tokens\");\r\n        myogg.Burn(msg.sender, _value);\r\n        myogg.Mint(address(this), _value);\r\n        feePaid[Itemcount][msg.sender] = true;\r\n        Tokenfees = Tokenfees.add(_value);\r\n        PaidTokenFee[msg.sender] = PaidTokenFee[msg.sender].add(_value);\r\n        return true;\r\n    }\r\n\r\n    function SearchItem(uint id)public view returns(address owner_,string memory name_,uint price_,uint duration_,string memory description_,bool sold_){\r\n       owner_ = ItemList[id].owner;\r\n       name_ = ItemList[id].name; \r\n       price_ = ItemList[id].listingprice;\r\n       duration_ = ItemList[id].listingduration;\r\n       description_ = ItemList[id].description;\r\n       sold_ = ItemList[id].sold;\r\n    }\r\n\r\n    function BuyItemwithTokens(uint id,uint price)public returns(bool success){\r\n     price = ItemList[id].listingprice.div(rate);\r\n     require(ItemList[id].listingduration >= block.timestamp,\"Listing Time exceeded\");\r\n     require(id != 0 ,\"No such Item exists\");\r\n     require(ItemList[id].sold == false,\"Item has been bought\");\r\n     require(myogg.CheckBalance(msg.sender) >= price,\"Insufficient Tokens\");\r\n     require(price == ItemList[id].listingprice,\"Send the Exact amount of tokens\");\r\n     myogg.Burn(msg.sender,price);\r\n     myogg.Mint(Lister[id],price);\r\n     ItemsOwned[msg.sender]++;\r\n     ItemList[id].owner = msg.sender;\r\n     PaidItem[id][msg.sender] = true;\r\n     ItemList[id].sold = true;\r\n     return true;\r\n    }\r\n     function BuyItemwithEther(uint id,uint pay)public returns(bool success){\r\n     require(ItemList[id].listingduration >= block.timestamp,\"Listing Time exceeded\");\r\n     require(id != 0 ,\"No such Item exists\");\r\n     require(ItemList[id].sold == false,\"Item has been bought\");\r\n     require((msg.sender).balance >= ItemList[id].listingprice,\"Insufficient Balance\");\r\n     require(pay == ItemList[id].listingprice,\"Input the Exact Amount\");\r\n     payable(Lister[id]).transfer(pay);\r\n     ItemsOwned[msg.sender]++;\r\n     ItemList[id].owner = msg.sender;\r\n     PaidItem[id][msg.sender] = true;\r\n     ItemList[id].sold = true;\r\n     return true;\r\n    }\r\n\r\n    function ViewItemPriceETH(uint id)public view returns(uint){\r\n    return ItemList[id].listingprice;\r\n    }\r\n\r\n    function ViewItemPriceTokens(uint id)public view returns(uint){\r\n    return ItemList[id].listingprice.div(rate);\r\n    }\r\n\r\n    function ReturnListingETHFee()public view returns(uint){\r\n        return listingEtherPrice;\r\n    }\r\n    function ReturnListingTokenFee()public view returns(uint){\r\n        return listingTokenAmount;\r\n    }    \r\n\r\n    }\r\n\r\n",
  "sourcePath": "C:\\Users\\MAYOWA\\Desktop\\E-Commerce\\contracts\\E-Commerce.sol",
  "compiler": {
    "name": "solc",
    "version": "0.8.11+commit.d7f03943.Emscripten.clang"
  },
  "schemaVersion": "3.4.5",
  "updatedAt": "2022-07-15T23:42:31.997Z",
  "devdoc": {
    "kind": "dev",
    "methods": {},
    "version": 1
  },
  "userdoc": {
    "kind": "user",
    "methods": {},
    "version": 1
  }
}