{
  "contractName": "TokenVendor",
  "abi": [
    {
      "inputs": [
        {
          "internalType": "address",
          "name": "tokenAddress",
          "type": "address"
        }
      ],
      "stateMutability": "nonpayable",
      "type": "constructor"
    },
    {
      "anonymous": false,
      "inputs": [
        {
          "indexed": true,
          "internalType": "address",
          "name": "_from",
          "type": "address"
        },
        {
          "indexed": true,
          "internalType": "address",
          "name": "_to",
          "type": "address"
        }
      ],
      "name": "ownerChange",
      "type": "event"
    },
    {
      "anonymous": false,
      "inputs": [
        {
          "indexed": true,
          "internalType": "address",
          "name": "_from",
          "type": "address"
        },
        {
          "indexed": false,
          "internalType": "uint256",
          "name": "_value",
          "type": "uint256"
        }
      ],
      "name": "rateSet",
      "type": "event"
    },
    {
      "anonymous": false,
      "inputs": [
        {
          "indexed": true,
          "internalType": "address",
          "name": "_from",
          "type": "address"
        },
        {
          "indexed": false,
          "internalType": "uint256",
          "name": "_value",
          "type": "uint256"
        }
      ],
      "name": "tokensBought",
      "type": "event"
    },
    {
      "anonymous": false,
      "inputs": [
        {
          "indexed": true,
          "internalType": "address",
          "name": "_from",
          "type": "address"
        },
        {
          "indexed": false,
          "internalType": "uint256",
          "name": "_value",
          "type": "uint256"
        }
      ],
      "name": "tokensSold",
      "type": "event"
    },
    {
      "anonymous": false,
      "inputs": [
        {
          "indexed": true,
          "internalType": "address",
          "name": "_from",
          "type": "address"
        },
        {
          "indexed": true,
          "internalType": "address",
          "name": "_to",
          "type": "address"
        },
        {
          "indexed": false,
          "internalType": "uint256",
          "name": "_value",
          "type": "uint256"
        }
      ],
      "name": "withdraw",
      "type": "event"
    },
    {
      "inputs": [],
      "name": "ShowRate",
      "outputs": [
        {
          "internalType": "uint256",
          "name": "",
          "type": "uint256"
        }
      ],
      "stateMutability": "view",
      "type": "function"
    },
    {
      "inputs": [
        {
          "internalType": "uint256",
          "name": "_rate",
          "type": "uint256"
        }
      ],
      "name": "SetRate",
      "outputs": [
        {
          "internalType": "bool",
          "name": "success",
          "type": "bool"
        }
      ],
      "stateMutability": "nonpayable",
      "type": "function"
    },
    {
      "inputs": [],
      "name": "ShowOwner",
      "outputs": [
        {
          "internalType": "address",
          "name": "",
          "type": "address"
        }
      ],
      "stateMutability": "view",
      "type": "function"
    },
    {
      "inputs": [
        {
          "internalType": "address",
          "name": "_owner",
          "type": "address"
        }
      ],
      "name": "ChangeOwner",
      "outputs": [
        {
          "internalType": "bool",
          "name": "success",
          "type": "bool"
        }
      ],
      "stateMutability": "nonpayable",
      "type": "function"
    },
    {
      "inputs": [],
      "name": "BuyTokens",
      "outputs": [
        {
          "internalType": "bool",
          "name": "success",
          "type": "bool"
        }
      ],
      "stateMutability": "payable",
      "type": "function"
    },
    {
      "inputs": [
        {
          "internalType": "uint256",
          "name": "amount",
          "type": "uint256"
        }
      ],
      "name": "SellTokens",
      "outputs": [
        {
          "internalType": "bool",
          "name": "success",
          "type": "bool"
        }
      ],
      "stateMutability": "nonpayable",
      "type": "function"
    },
    {
      "inputs": [],
      "name": "TokeninCirculation",
      "outputs": [
        {
          "internalType": "uint256",
          "name": "",
          "type": "uint256"
        }
      ],
      "stateMutability": "view",
      "type": "function"
    },
    {
      "inputs": [
        {
          "internalType": "address payable",
          "name": "_to",
          "type": "address"
        },
        {
          "internalType": "uint256",
          "name": "amount",
          "type": "uint256"
        }
      ],
      "name": "Withdraw",
      "outputs": [
        {
          "internalType": "bool",
          "name": "success",
          "type": "bool"
        }
      ],
      "stateMutability": "payable",
      "type": "function"
    },
    {
      "inputs": [],
      "name": "BalanceVendor",
      "outputs": [
        {
          "internalType": "uint256",
          "name": "",
          "type": "uint256"
        }
      ],
      "stateMutability": "view",
      "type": "function"
    },
    {
      "inputs": [],
      "name": "VendorTokenBalance",
      "outputs": [
        {
          "internalType": "uint256",
          "name": "",
          "type": "uint256"
        }
      ],
      "stateMutability": "view",
      "type": "function"
    },
    {
      "inputs": [],
      "name": "TokenBalance",
      "outputs": [
        {
          "internalType": "uint256",
          "name": "",
          "type": "uint256"
        }
      ],
      "stateMutability": "view",
      "type": "function"
    },
    {
      "inputs": [],
      "name": "ETHBalance",
      "outputs": [
        {
          "internalType": "uint256",
          "name": "",
          "type": "uint256"
        }
      ],
      "stateMutability": "view",
      "type": "function"
    }
  ],
  "bytecode": "0x608060405265246139ca80006003553480156200001b57600080fd5b5060405162001b3038038062001b308339818101604052810190620000419190620000f2565b806000806101000a81548173ffffffffffffffffffffffffffffffffffffffff021916908373ffffffffffffffffffffffffffffffffffffffff1602179055505062000124565b600080fd5b600073ffffffffffffffffffffffffffffffffffffffff82169050919050565b6000620000ba826200008d565b9050919050565b620000cc81620000ad565b8114620000d857600080fd5b50565b600081519050620000ec81620000c1565b92915050565b6000602082840312156200010b576200010a62000088565b5b60006200011b84828501620000db565b91505092915050565b6119fc80620001346000396000f3fe6080604052600436106100a75760003560e01c80639c7ebb30116100645780639c7ebb30146101c5578063a9bfe5c714610202578063d81111ab1461022d578063dd1b31261461024b578063f1e191b214610276578063f2853292146102a1576100a7565b80632640b401146100ac5780633055a78c146100e9578063414b944a14610114578063884edad91461013f57806389bc79831461016f57806396ce267a1461019a575b600080fd5b3480156100b857600080fd5b506100d360048036038101906100ce91906110eb565b6102de565b6040516100e09190611133565b60405180910390f35b3480156100f557600080fd5b506100fe610412565b60405161010b919061115d565b60405180910390f35b34801561012057600080fd5b50610129610431565b604051610136919061115d565b60405180910390f35b610159600480360381019061015491906111d6565b61043b565b6040516101669190611133565b60405180910390f35b34801561017b57600080fd5b506101846105c6565b604051610191919061115d565b60405180910390f35b3480156101a657600080fd5b506101af610668565b6040516101bc9190611237565b60405180910390f35b3480156101d157600080fd5b506101ec60048036038101906101e791906110eb565b610692565b6040516101f99190611133565b60405180910390f35b34801561020e57600080fd5b50610217610a5b565b604051610224919061115d565b60405180910390f35b610235610afd565b6040516102429190611133565b60405180910390f35b34801561025757600080fd5b50610260610e49565b60405161026d919061115d565b60405180910390f35b34801561028257600080fd5b5061028b610e51565b604051610298919061115d565b60405180910390f35b3480156102ad57600080fd5b506102c860048036038101906102c3919061127e565b610e5b565b6040516102d59190611133565b60405180910390f35b6000600260009054906101000a900473ffffffffffffffffffffffffffffffffffffffff1673ffffffffffffffffffffffffffffffffffffffff163373ffffffffffffffffffffffffffffffffffffffff1614610370576040517f08c379a000000000000000000000000000000000000000000000000000000000815260040161036790611308565b60405180910390fd5b60008214156103b4576040517f08c379a00000000000000000000000000000000000000000000000000000000081526004016103ab90611374565b60405180910390fd5b816003819055503373ffffffffffffffffffffffffffffffffffffffff167fa3707fbe6132f68343b60033c0b849fe8f8a04031783920bb43a17ab9d61c43283604051610401919061115d565b60405180910390a260019050919050565b60003373ffffffffffffffffffffffffffffffffffffffff1631905090565b6000600354905090565b6000600260009054906101000a900473ffffffffffffffffffffffffffffffffffffffff1673ffffffffffffffffffffffffffffffffffffffff163373ffffffffffffffffffffffffffffffffffffffff16146104cd576040517f08c379a00000000000000000000000000000000000000000000000000000000081526004016104c4906113e0565b60405180910390fd5b81471015610510576040517f08c379a00000000000000000000000000000000000000000000000000000000081526004016105079061144c565b60405180910390fd5b8273ffffffffffffffffffffffffffffffffffffffff166108fc839081150290604051600060405180830381858888f19350505050158015610556573d6000803e3d6000fd5b508273ffffffffffffffffffffffffffffffffffffffff163373ffffffffffffffffffffffffffffffffffffffff167fd9caed12f81c440f63c9677a4301dff8e874a7abd93e3ecd0aaea4ffa129d9fb846040516105b4919061115d565b60405180910390a36001905092915050565b60008060009054906101000a900473ffffffffffffffffffffffffffffffffffffffff1673ffffffffffffffffffffffffffffffffffffffff16632e4d59c4306040518263ffffffff1660e01b81526004016106229190611237565b602060405180830381865afa15801561063f573d6000803e3d6000fd5b505050506040513d601f19601f820116820180604052508101906106639190611481565b905090565b6000600260009054906101000a900473ffffffffffffffffffffffffffffffffffffffff16905090565b6000806106aa6003548461100190919063ffffffff16565b905060008060009054906101000a900473ffffffffffffffffffffffffffffffffffffffff1673ffffffffffffffffffffffffffffffffffffffff16632e4d59c4336040518263ffffffff1660e01b81526004016107089190611237565b602060405180830381865afa158015610725573d6000803e3d6000fd5b505050506040513d601f19601f820116820180604052508101906107499190611481565b9050600084141561078f576040517f08c379a0000000000000000000000000000000000000000000000000000000008152600401610786906114fa565b60405180910390fd5b838110156107d2576040517f08c379a00000000000000000000000000000000000000000000000000000000081526004016107c990611566565b60405180910390fd5b60006003541415610818576040517f08c379a000000000000000000000000000000000000000000000000000000000815260040161080f906115d2565b60405180910390fd5b81610821610e49565b1015610862576040517f08c379a00000000000000000000000000000000000000000000000000000000081526004016108599061163e565b60405180910390fd5b3373ffffffffffffffffffffffffffffffffffffffff166108fc839081150290604051600060405180830381858888f193505050501580156108a8573d6000803e3d6000fd5b5060008054906101000a900473ffffffffffffffffffffffffffffffffffffffff1673ffffffffffffffffffffffffffffffffffffffff16630f6798a530866040518363ffffffff1660e01b815260040161090492919061165e565b6020604051808303816000875af1158015610923573d6000803e3d6000fd5b505050506040513d601f19601f8201168201806040525081019061094791906116b3565b5060008054906101000a900473ffffffffffffffffffffffffffffffffffffffff1673ffffffffffffffffffffffffffffffffffffffff1663cc16f5db33866040518363ffffffff1660e01b81526004016109a392919061165e565b6020604051808303816000875af11580156109c2573d6000803e3d6000fd5b505050506040513d601f19601f820116820180604052508101906109e691906116b3565b506109fc8260015461104290919063ffffffff16565b6001819055503373ffffffffffffffffffffffffffffffffffffffff167f23d3a1dba907755077ba075349a7def744774a44dbc61e3d69ff90eef17e9b0485604051610a48919061115d565b60405180910390a2600192505050919050565b60008060009054906101000a900473ffffffffffffffffffffffffffffffffffffffff1673ffffffffffffffffffffffffffffffffffffffff16632e4d59c4336040518263ffffffff1660e01b8152600401610ab79190611237565b602060405180830381865afa158015610ad4573d6000803e3d6000fd5b505050506040513d601f19601f82011682018060405250810190610af89190611481565b905090565b60008060008054906101000a900473ffffffffffffffffffffffffffffffffffffffff1673ffffffffffffffffffffffffffffffffffffffff16632e4d59c4306040518263ffffffff1660e01b8152600401610b599190611237565b602060405180830381865afa158015610b76573d6000803e3d6000fd5b505050506040513d601f19601f82011682018060405250810190610b9a9190611481565b905060006003541415610be2576040517f08c379a0000000000000000000000000000000000000000000000000000000008152600401610bd9906115d2565b60405180910390fd5b6000341415610c26576040517f08c379a0000000000000000000000000000000000000000000000000000000008152600401610c1d9061172c565b60405180910390fd5b6000610c3d6003543461106990919063ffffffff16565b905080821015610c82576040517f08c379a0000000000000000000000000000000000000000000000000000000008152600401610c7990611798565b60405180910390fd5b610c976003543461106990919063ffffffff16565b905060008054906101000a900473ffffffffffffffffffffffffffffffffffffffff1673ffffffffffffffffffffffffffffffffffffffff16630f6798a533836040518363ffffffff1660e01b8152600401610cf492919061165e565b6020604051808303816000875af1158015610d13573d6000803e3d6000fd5b505050506040513d601f19601f82011682018060405250810190610d3791906116b3565b5060008054906101000a900473ffffffffffffffffffffffffffffffffffffffff1673ffffffffffffffffffffffffffffffffffffffff1663cc16f5db30836040518363ffffffff1660e01b8152600401610d9392919061165e565b6020604051808303816000875af1158015610db2573d6000803e3d6000fd5b505050506040513d601f19601f82011682018060405250810190610dd691906116b3565b50610dec8160015461108490919063ffffffff16565b6001819055503373ffffffffffffffffffffffffffffffffffffffff167f6ebf55d0cee4245affe84127b666e1c5c6614cce8e0de4290cc3210d2b83b63082604051610e38919061115d565b60405180910390a260019250505090565b600047905090565b6000600154905090565b6000600260009054906101000a900473ffffffffffffffffffffffffffffffffffffffff1673ffffffffffffffffffffffffffffffffffffffff163373ffffffffffffffffffffffffffffffffffffffff1614610eed576040517f08c379a0000000000000000000000000000000000000000000000000000000008152600401610ee4906113e0565b60405180910390fd5b600073ffffffffffffffffffffffffffffffffffffffff168273ffffffffffffffffffffffffffffffffffffffff161415610f5d576040517f08c379a0000000000000000000000000000000000000000000000000000000008152600401610f5490611804565b60405180910390fd5b81600260006101000a81548173ffffffffffffffffffffffffffffffffffffffff021916908373ffffffffffffffffffffffffffffffffffffffff1602179055508173ffffffffffffffffffffffffffffffffffffffff163373ffffffffffffffffffffffffffffffffffffffff167f800b16beef0b6d9e5cd0841b191fb9fe7c0523e50ff5b0b7dc596b57b7325d8160405160405180910390a360019050919050565b60008082846110109190611853565b9050600084148061102b575082848261102991906118dc565b145b6110385761103761190d565b5b8091505092915050565b6000828211156110555761105461190d565b5b8183611061919061193c565b905092915050565b600080828461107891906118dc565b90508091505092915050565b60008082846110939190611970565b9050838110156110a6576110a561190d565b5b8091505092915050565b600080fd5b6000819050919050565b6110c8816110b5565b81146110d357600080fd5b50565b6000813590506110e5816110bf565b92915050565b600060208284031215611101576111006110b0565b5b600061110f848285016110d6565b91505092915050565b60008115159050919050565b61112d81611118565b82525050565b60006020820190506111486000830184611124565b92915050565b611157816110b5565b82525050565b6000602082019050611172600083018461114e565b92915050565b600073ffffffffffffffffffffffffffffffffffffffff82169050919050565b60006111a382611178565b9050919050565b6111b381611198565b81146111be57600080fd5b50565b6000813590506111d0816111aa565b92915050565b600080604083850312156111ed576111ec6110b0565b5b60006111fb858286016111c1565b925050602061120c858286016110d6565b9150509250929050565b600061122182611178565b9050919050565b61123181611216565b82525050565b600060208201905061124c6000830184611228565b92915050565b61125b81611216565b811461126657600080fd5b50565b60008135905061127881611252565b92915050565b600060208284031215611294576112936110b0565b5b60006112a284828501611269565b91505092915050565b600082825260208201905092915050565b7f596f7520617265206e6f7420746865204f776e65720000000000000000000000600082015250565b60006112f26015836112ab565b91506112fd826112bc565b602082019050919050565b60006020820190508181036000830152611321816112e5565b9050919050565b7f526174652063616e6e6f74206265203000000000000000000000000000000000600082015250565b600061135e6010836112ab565b915061136982611328565b602082019050919050565b6000602082019050818103600083015261138d81611351565b9050919050565b7f596f7520617265206e6f7420746865206f776e65720000000000000000000000600082015250565b60006113ca6015836112ab565b91506113d582611394565b602082019050919050565b600060208201905081810360008301526113f9816113bd565b9050919050565b7f496e73756666696369656e742042616c616e6365000000000000000000000000600082015250565b60006114366014836112ab565b915061144182611400565b602082019050919050565b6000602082019050818103600083015261146581611429565b9050919050565b60008151905061147b816110bf565b92915050565b600060208284031215611497576114966110b0565b5b60006114a58482850161146c565b91505092915050565b7f596f752063616e6e6f742073656c6c206e6f7468696e67000000000000000000600082015250565b60006114e46017836112ab565b91506114ef826114ae565b602082019050919050565b60006020820190508181036000830152611513816114d7565b9050919050565b7f496e73756666696369656e7420416d6f756e74204f6620546f6b656e73000000600082015250565b6000611550601d836112ab565b915061155b8261151a565b602082019050919050565b6000602082019050818103600083015261157f81611543565b9050919050565b7f5261746520686173206e6f74206265656e207365740000000000000000000000600082015250565b60006115bc6015836112ab565b91506115c782611586565b602082019050919050565b600060208201905081810360008301526115eb816115af565b9050919050565b7f496e73756666696369656e742043617368000000000000000000000000000000600082015250565b60006116286011836112ab565b9150611633826115f2565b602082019050919050565b600060208201905081810360008301526116578161161b565b9050919050565b60006040820190506116736000830185611228565b611680602083018461114e565b9392505050565b61169081611118565b811461169b57600080fd5b50565b6000815190506116ad81611687565b92915050565b6000602082840312156116c9576116c86110b0565b5b60006116d78482850161169e565b91505092915050565b7f596f752063616e6e6f742073656e64206e6f7468696e67000000000000000000600082015250565b60006117166017836112ab565b9150611721826116e0565b602082019050919050565b6000602082019050818103600083015261174581611709565b9050919050565b7f416d6f756e7420697320746f6f20686967680000000000000000000000000000600082015250565b60006117826012836112ab565b915061178d8261174c565b602082019050919050565b600060208201905081810360008301526117b181611775565b9050919050565b7f4e6577206f776e65722063616e6e6f74206265207a65726f2061646472657373600082015250565b60006117ee6020836112ab565b91506117f9826117b8565b602082019050919050565b6000602082019050818103600083015261181d816117e1565b9050919050565b7f4e487b7100000000000000000000000000000000000000000000000000000000600052601160045260246000fd5b600061185e826110b5565b9150611869836110b5565b9250817fffffffffffffffffffffffffffffffffffffffffffffffffffffffffffffffff04831182151516156118a2576118a1611824565b5b828202905092915050565b7f4e487b7100000000000000000000000000000000000000000000000000000000600052601260045260246000fd5b60006118e7826110b5565b91506118f2836110b5565b925082611902576119016118ad565b5b828204905092915050565b7f4e487b7100000000000000000000000000000000000000000000000000000000600052600160045260246000fd5b6000611947826110b5565b9150611952836110b5565b92508282101561196557611964611824565b5b828203905092915050565b600061197b826110b5565b9150611986836110b5565b9250827fffffffffffffffffffffffffffffffffffffffffffffffffffffffffffffffff038211156119bb576119ba611824565b5b82820190509291505056fea2646970667358221220402291d4ecec1e8733d9be70ccb79cdf365c366c57e80d82cb9487bb4610dbb264736f6c634300080b0033",
  "immutableReferences": {},
  "source": "pragma solidity ^0.8.11;\r\nimport \"./OGGToken.sol\";\r\ncontract TokenVendor{\r\n    OGG myogg;\r\n    using SafeMath for uint;\r\n    uint private Circulation;\r\n    address private owner;\r\n    uint private rate = 40000000000000;\r\n    mapping(address => uint)Bought;\r\n    mapping(address => uint)Sold;\r\n    event rateSet(address indexed _from,uint _value);\r\n    event ownerChange(address indexed _from,address indexed _to);\r\n    event tokensBought(address indexed _from,uint _value);\r\n    event tokensSold(address indexed _from,uint _value);\r\n    event withdraw(address indexed _from,address indexed _to,uint _value);\r\n    \r\n\r\n    constructor(address tokenAddress){\r\n        myogg = OGG(tokenAddress);\r\n    }\r\n    function ShowRate()external view returns(uint){\r\n        return rate;\r\n    }\r\n    function SetRate(uint _rate)external returns(bool success){\r\n        require(msg.sender == owner,\"You are not the Owner\");\r\n        require(_rate != 0,\"Rate cannot be 0\");\r\n        rate = _rate;\r\n        emit rateSet(msg.sender,_rate);\r\n        return true;\r\n\r\n    }\r\n    function ShowOwner()external view returns(address){\r\n        return owner;\r\n    }\r\n\r\n    function ChangeOwner(address _owner)external returns(bool success){\r\n        require(msg.sender == owner,\"You are not the owner\");\r\n        require(_owner != address(0),\"New owner cannot be zero address\");\r\n        owner = _owner;\r\n        emit ownerChange(msg.sender,_owner);\r\n        return true;\r\n    }\r\n\r\n\r\n    function BuyTokens()external payable returns(bool success){\r\n        uint VendorBalance = myogg.CheckBalance(address(this));\r\n        require(rate != 0,\"Rate has not been set\");\r\n        require(msg.value != 0,\"You cannot send nothing\");\r\n        uint bought = msg.value.div(rate);\r\n        require(VendorBalance >= bought,\"Amount is too high\");\r\n        bought = msg.value.div(rate);\r\n        myogg.Mint(msg.sender,bought);\r\n        myogg.Burn(address(this),bought);\r\n        Circulation = Circulation.add(bought);\r\n        emit tokensBought(msg.sender,bought);\r\n        return true;\r\n    }\r\n\r\n     function SellTokens(uint amount)external returns(bool success){\r\n        uint sold = amount.mul(rate);\r\n        uint UserBalance = myogg.CheckBalance(msg.sender);\r\n        require(amount != 0,\"You cannot sell nothing\");\r\n        require(UserBalance >= amount,\"Insufficient Amount Of Tokens\");\r\n        require(rate != 0,\"Rate has not been set\");\r\n        require(BalanceVendor() >= sold,\"Insufficient Cash\");\r\n        payable(msg.sender).transfer(sold);\r\n        myogg.Mint(address(this),amount);\r\n        myogg.Burn(msg.sender,amount);\r\n        Circulation = Circulation.sub(sold);\r\n        emit tokensSold(msg.sender,amount);\r\n        return true;\r\n    }\r\n\r\n    function TokeninCirculation()external view returns(uint){\r\n        return Circulation;\r\n    }\r\n\r\n    function Withdraw(address payable _to,uint amount)external payable returns(bool success){\r\n        require(msg.sender == owner,\"You are not the owner\");\r\n        require(address(this).balance >= amount,\"Insufficient Balance\");\r\n        _to.transfer(amount);\r\n        emit withdraw(msg.sender,_to,amount);\r\n        return true;\r\n    }\r\n    function BalanceVendor()public view returns(uint){\r\n        return address(this).balance;\r\n    }\r\n    function VendorTokenBalance()public view returns(uint){\r\n        return myogg.CheckBalance(address(this));\r\n    }\r\n\r\n    function TokenBalance()public view returns(uint){\r\n        return myogg.CheckBalance(msg.sender);\r\n    }\r\n    function ETHBalance()public view returns(uint){\r\n        return (msg.sender).balance;\r\n    }\r\n    \r\n}",
  "sourcePath": "C:\\Users\\MAYOWA\\Desktop\\E-Commerce\\contracts\\TokenVendor.sol",
  "compiler": {
    "name": "solc",
    "version": "0.8.11+commit.d7f03943.Emscripten.clang"
  },
  "schemaVersion": "3.4.5",
  "updatedAt": "2022-07-15T23:42:32.414Z",
  "devdoc": {
    "kind": "dev",
    "methods": {},
    "version": 1
  },
  "userdoc": {
    "kind": "user",
    "methods": {},
    "version": 1
  }
}